{
  "address": "0xf403f0579BdbAe4A688a014960762EE98F7F1764",
  "abi": [
    {
      "inputs": [],
      "stateMutability": "nonpayable",
      "type": "constructor"
    },
    {
      "anonymous": false,
      "inputs": [
        {
          "indexed": true,
          "internalType": "address",
          "name": "account",
          "type": "address"
        },
        {
          "indexed": true,
          "internalType": "address",
          "name": "operator",
          "type": "address"
        },
        {
          "indexed": false,
          "internalType": "bool",
          "name": "approved",
          "type": "bool"
        }
      ],
      "name": "ApprovalForAll",
      "type": "event"
    },
    {
      "anonymous": false,
      "inputs": [
        {
          "indexed": true,
          "internalType": "address",
          "name": "previousOwner",
          "type": "address"
        },
        {
          "indexed": true,
          "internalType": "address",
          "name": "newOwner",
          "type": "address"
        }
      ],
      "name": "OwnershipTransferred",
      "type": "event"
    },
    {
      "anonymous": false,
      "inputs": [
        {
          "indexed": true,
          "internalType": "address",
          "name": "operator",
          "type": "address"
        },
        {
          "indexed": true,
          "internalType": "address",
          "name": "from",
          "type": "address"
        },
        {
          "indexed": true,
          "internalType": "address",
          "name": "to",
          "type": "address"
        },
        {
          "indexed": false,
          "internalType": "uint256[]",
          "name": "ids",
          "type": "uint256[]"
        },
        {
          "indexed": false,
          "internalType": "uint256[]",
          "name": "values",
          "type": "uint256[]"
        }
      ],
      "name": "TransferBatch",
      "type": "event"
    },
    {
      "anonymous": false,
      "inputs": [
        {
          "indexed": true,
          "internalType": "address",
          "name": "operator",
          "type": "address"
        },
        {
          "indexed": true,
          "internalType": "address",
          "name": "from",
          "type": "address"
        },
        {
          "indexed": true,
          "internalType": "address",
          "name": "to",
          "type": "address"
        },
        {
          "indexed": false,
          "internalType": "uint256",
          "name": "id",
          "type": "uint256"
        },
        {
          "indexed": false,
          "internalType": "uint256",
          "name": "value",
          "type": "uint256"
        }
      ],
      "name": "TransferSingle",
      "type": "event"
    },
    {
      "anonymous": false,
      "inputs": [
        {
          "indexed": false,
          "internalType": "string",
          "name": "value",
          "type": "string"
        },
        {
          "indexed": true,
          "internalType": "uint256",
          "name": "id",
          "type": "uint256"
        }
      ],
      "name": "URI",
      "type": "event"
    },
    {
      "inputs": [],
      "name": "CREDITS",
      "outputs": [
        {
          "internalType": "uint256",
          "name": "",
          "type": "uint256"
        }
      ],
      "stateMutability": "view",
      "type": "function"
    },
    {
      "inputs": [
        {
          "internalType": "address",
          "name": "account",
          "type": "address"
        },
        {
          "internalType": "uint256",
          "name": "id",
          "type": "uint256"
        }
      ],
      "name": "balanceOf",
      "outputs": [
        {
          "internalType": "uint256",
          "name": "",
          "type": "uint256"
        }
      ],
      "stateMutability": "view",
      "type": "function"
    },
    {
      "inputs": [
        {
          "internalType": "address[]",
          "name": "accounts",
          "type": "address[]"
        },
        {
          "internalType": "uint256[]",
          "name": "ids",
          "type": "uint256[]"
        }
      ],
      "name": "balanceOfBatch",
      "outputs": [
        {
          "internalType": "uint256[]",
          "name": "",
          "type": "uint256[]"
        }
      ],
      "stateMutability": "view",
      "type": "function"
    },
    {
      "inputs": [
        {
          "internalType": "address",
          "name": "account",
          "type": "address"
        },
        {
          "internalType": "uint256",
          "name": "id",
          "type": "uint256"
        },
        {
          "internalType": "uint256",
          "name": "value",
          "type": "uint256"
        }
      ],
      "name": "burn",
      "outputs": [],
      "stateMutability": "nonpayable",
      "type": "function"
    },
    {
      "inputs": [
        {
          "internalType": "address",
          "name": "account",
          "type": "address"
        },
        {
          "internalType": "uint256[]",
          "name": "ids",
          "type": "uint256[]"
        },
        {
          "internalType": "uint256[]",
          "name": "values",
          "type": "uint256[]"
        }
      ],
      "name": "burnBatch",
      "outputs": [],
      "stateMutability": "nonpayable",
      "type": "function"
    },
    {
      "inputs": [
        {
          "internalType": "uint256",
          "name": "_id",
          "type": "uint256"
        }
      ],
      "name": "burnCredit",
      "outputs": [],
      "stateMutability": "nonpayable",
      "type": "function"
    },
    {
      "inputs": [
        {
          "internalType": "address",
          "name": "_account",
          "type": "address"
        },
        {
          "internalType": "uint256",
          "name": "_id",
          "type": "uint256"
        },
        {
          "internalType": "uint256",
          "name": "_amount",
          "type": "uint256"
        }
      ],
      "name": "buyCredit",
      "outputs": [],
      "stateMutability": "payable",
      "type": "function"
    },
    {
      "inputs": [],
      "name": "creditPrice",
      "outputs": [
        {
          "internalType": "uint256",
          "name": "",
          "type": "uint256"
        }
      ],
      "stateMutability": "view",
      "type": "function"
    },
    {
      "inputs": [
        {
          "internalType": "uint256",
          "name": "id",
          "type": "uint256"
        }
      ],
      "name": "exists",
      "outputs": [
        {
          "internalType": "bool",
          "name": "",
          "type": "bool"
        }
      ],
      "stateMutability": "view",
      "type": "function"
    },
    {
      "inputs": [],
      "name": "highestScore",
      "outputs": [
        {
          "internalType": "uint256",
          "name": "",
          "type": "uint256"
        }
      ],
      "stateMutability": "view",
      "type": "function"
    },
    {
      "inputs": [],
      "name": "highestScorer",
      "outputs": [
        {
          "internalType": "address",
          "name": "",
          "type": "address"
        }
      ],
      "stateMutability": "view",
      "type": "function"
    },
    {
      "inputs": [
        {
          "internalType": "address",
          "name": "account",
          "type": "address"
        },
        {
          "internalType": "address",
          "name": "operator",
          "type": "address"
        }
      ],
      "name": "isApprovedForAll",
      "outputs": [
        {
          "internalType": "bool",
          "name": "",
          "type": "bool"
        }
      ],
      "stateMutability": "view",
      "type": "function"
    },
    {
      "inputs": [],
      "name": "leagueDuration",
      "outputs": [
        {
          "internalType": "uint256",
          "name": "",
          "type": "uint256"
        }
      ],
      "stateMutability": "view",
      "type": "function"
    },
    {
      "inputs": [],
      "name": "leagueNumber",
      "outputs": [
        {
          "internalType": "uint256",
          "name": "",
          "type": "uint256"
        }
      ],
      "stateMutability": "view",
      "type": "function"
    },
    {
      "inputs": [],
      "name": "leagueReward",
      "outputs": [
        {
          "internalType": "uint256",
          "name": "",
          "type": "uint256"
        }
      ],
      "stateMutability": "view",
      "type": "function"
    },
    {
      "inputs": [],
      "name": "leagueSponsor",
      "outputs": [
        {
          "internalType": "bytes32",
          "name": "",
          "type": "bytes32"
        }
      ],
      "stateMutability": "view",
      "type": "function"
    },
    {
      "inputs": [],
      "name": "leagueStart",
      "outputs": [
        {
          "internalType": "uint256",
          "name": "",
          "type": "uint256"
        }
      ],
      "stateMutability": "view",
      "type": "function"
    },
    {
      "inputs": [
        {
          "internalType": "address",
          "name": "account",
          "type": "address"
        },
        {
          "internalType": "uint256",
          "name": "id",
          "type": "uint256"
        },
        {
          "internalType": "uint256",
          "name": "amount",
          "type": "uint256"
        },
        {
          "internalType": "bytes",
          "name": "data",
          "type": "bytes"
        }
      ],
      "name": "mint",
      "outputs": [],
      "stateMutability": "nonpayable",
      "type": "function"
    },
    {
      "inputs": [
        {
          "internalType": "address",
          "name": "to",
          "type": "address"
        },
        {
          "internalType": "uint256[]",
          "name": "ids",
          "type": "uint256[]"
        },
        {
          "internalType": "uint256[]",
          "name": "amounts",
          "type": "uint256[]"
        },
        {
          "internalType": "bytes",
          "name": "data",
          "type": "bytes"
        }
      ],
      "name": "mintBatch",
      "outputs": [],
      "stateMutability": "nonpayable",
      "type": "function"
    },
    {
      "inputs": [],
      "name": "owner",
      "outputs": [
        {
          "internalType": "address",
          "name": "",
          "type": "address"
        }
      ],
      "stateMutability": "view",
      "type": "function"
    },
    {
      "inputs": [],
      "name": "renounceOwnership",
      "outputs": [],
      "stateMutability": "nonpayable",
      "type": "function"
    },
    {
      "inputs": [
        {
          "internalType": "address",
          "name": "from",
          "type": "address"
        },
        {
          "internalType": "address",
          "name": "to",
          "type": "address"
        },
        {
          "internalType": "uint256[]",
          "name": "ids",
          "type": "uint256[]"
        },
        {
          "internalType": "uint256[]",
          "name": "amounts",
          "type": "uint256[]"
        },
        {
          "internalType": "bytes",
          "name": "data",
          "type": "bytes"
        }
      ],
      "name": "safeBatchTransferFrom",
      "outputs": [],
      "stateMutability": "nonpayable",
      "type": "function"
    },
    {
      "inputs": [
        {
          "internalType": "address",
          "name": "from",
          "type": "address"
        },
        {
          "internalType": "address",
          "name": "to",
          "type": "address"
        },
        {
          "internalType": "uint256",
          "name": "id",
          "type": "uint256"
        },
        {
          "internalType": "uint256",
          "name": "amount",
          "type": "uint256"
        },
        {
          "internalType": "bytes",
          "name": "data",
          "type": "bytes"
        }
      ],
      "name": "safeTransferFrom",
      "outputs": [],
      "stateMutability": "nonpayable",
      "type": "function"
    },
    {
      "inputs": [
        {
          "internalType": "address",
          "name": "operator",
          "type": "address"
        },
        {
          "internalType": "bool",
          "name": "approved",
          "type": "bool"
        }
      ],
      "name": "setApprovalForAll",
      "outputs": [],
      "stateMutability": "nonpayable",
      "type": "function"
    },
    {
      "inputs": [
        {
          "internalType": "uint256",
          "name": "newPrice",
          "type": "uint256"
        }
      ],
      "name": "setCreditPrice",
      "outputs": [],
      "stateMutability": "nonpayable",
      "type": "function"
    },
    {
      "inputs": [
        {
          "internalType": "uint256",
          "name": "_score",
          "type": "uint256"
        },
        {
          "internalType": "address",
          "name": "_scorer",
          "type": "address"
        }
      ],
      "name": "setHighestScore",
      "outputs": [],
      "stateMutability": "nonpayable",
      "type": "function"
    },
    {
      "inputs": [
        {
          "internalType": "uint256",
          "name": "_duration",
          "type": "uint256"
        }
      ],
      "name": "setLeagueDuration",
      "outputs": [],
      "stateMutability": "nonpayable",
      "type": "function"
    },
    {
      "inputs": [
        {
          "internalType": "bytes32",
          "name": "_sponsorName",
          "type": "bytes32"
        }
      ],
      "name": "sponsorLeague",
      "outputs": [],
      "stateMutability": "payable",
      "type": "function"
    },
    {
      "inputs": [],
      "name": "startFirstLeague",
      "outputs": [],
      "stateMutability": "nonpayable",
      "type": "function"
    },
    {
      "inputs": [
        {
          "internalType": "bytes4",
          "name": "interfaceId",
          "type": "bytes4"
        }
      ],
      "name": "supportsInterface",
      "outputs": [
        {
          "internalType": "bool",
          "name": "",
          "type": "bool"
        }
      ],
      "stateMutability": "view",
      "type": "function"
    },
    {
      "inputs": [
        {
          "internalType": "uint256",
          "name": "id",
          "type": "uint256"
        }
      ],
      "name": "totalSupply",
      "outputs": [
        {
          "internalType": "uint256",
          "name": "",
          "type": "uint256"
        }
      ],
      "stateMutability": "view",
      "type": "function"
    },
    {
      "inputs": [
        {
          "internalType": "address",
          "name": "newOwner",
          "type": "address"
        }
      ],
      "name": "transferOwnership",
      "outputs": [],
      "stateMutability": "nonpayable",
      "type": "function"
    },
    {
      "inputs": [
        {
          "internalType": "uint256",
          "name": "",
          "type": "uint256"
        }
      ],
      "name": "uri",
      "outputs": [
        {
          "internalType": "string",
          "name": "",
          "type": "string"
        }
      ],
      "stateMutability": "view",
      "type": "function"
    },
    {
      "inputs": [],
      "name": "withdrawAccumulated",
      "outputs": [],
      "stateMutability": "nonpayable",
      "type": "function"
    },
    {
      "inputs": [],
      "name": "wrapUpLeagueAndStartNew",
      "outputs": [],
      "stateMutability": "nonpayable",
      "type": "function"
    }
  ],
  "transactionHash": "0x1d931d42cb821563bd1383220e837efce5998c1f46e22a505a7a2c6a32d2c433",
  "args": [],
  "numDeployments": 2,
  "solcInputHash": "7f8ff372a011a7094cd3bf89d2346b1d",
  "bytecode": "0x6080604052670de0b6b3a764000060055560006006556000600760006101000a81548173ffffffffffffffffffffffffffffffffffffffff021916908373ffffffffffffffffffffffffffffffffffffffff1602179055506202a30060085560006009556000600a556000600b556000600c553480156200007f57600080fd5b5060405180606001604052806032815260200162004fc260329139620000ab81620000d260201b60201c565b50620000cc620000c0620000e760201b60201c565b620000ef60201b60201c565b62000516565b8060029081620000e391906200042f565b5050565b600033905090565b6000600360009054906101000a900473ffffffffffffffffffffffffffffffffffffffff16905081600360006101000a81548173ffffffffffffffffffffffffffffffffffffffff021916908373ffffffffffffffffffffffffffffffffffffffff1602179055508173ffffffffffffffffffffffffffffffffffffffff168173ffffffffffffffffffffffffffffffffffffffff167f8be0079c531659141344cd1fd0a4f28419497f9722a3daafe3b4186f6b6457e060405160405180910390a35050565b600081519050919050565b7f4e487b7100000000000000000000000000000000000000000000000000000000600052604160045260246000fd5b7f4e487b7100000000000000000000000000000000000000000000000000000000600052602260045260246000fd5b600060028204905060018216806200023757607f821691505b6020821081036200024d576200024c620001ef565b5b50919050565b60008190508160005260206000209050919050565b60006020601f8301049050919050565b600082821b905092915050565b600060088302620002b77fffffffffffffffffffffffffffffffffffffffffffffffffffffffffffffffff8262000278565b620002c3868362000278565b95508019841693508086168417925050509392505050565b6000819050919050565b6000819050919050565b6000620003106200030a6200030484620002db565b620002e5565b620002db565b9050919050565b6000819050919050565b6200032c83620002ef565b620003446200033b8262000317565b84845462000285565b825550505050565b600090565b6200035b6200034c565b6200036881848462000321565b505050565b5b8181101562000390576200038460008262000351565b6001810190506200036e565b5050565b601f821115620003df57620003a98162000253565b620003b48462000268565b81016020851015620003c4578190505b620003dc620003d38562000268565b8301826200036d565b50505b505050565b600082821c905092915050565b60006200040460001984600802620003e4565b1980831691505092915050565b60006200041f8383620003f1565b9150826002028217905092915050565b6200043a82620001b5565b67ffffffffffffffff811115620004565762000455620001c0565b5b6200046282546200021e565b6200046f82828562000394565b600060209050601f831160018114620004a7576000841562000492578287015190505b6200049e858262000411565b8655506200050e565b601f198416620004b78662000253565b60005b82811015620004e157848901518255600182019150602085019450602081019050620004ba565b86831015620005015784890151620004fd601f891682620003f1565b8355505b6001600288020188555050505b505050505050565b614a9c80620005266000396000f3fe6080604052600436106102035760003560e01c8063715018a611610118578063bcb7574b116100a0578063e985e9c51161006f578063e985e9c5146106fe578063ea1738651461073b578063f242432a14610766578063f2fde38b1461078f578063f5298aca146107b857610203565b8063bcb7574b14610654578063bd85b0391461066b578063ca6358cd146106a8578063d8969921146106d357610203565b80638400f894116100e75780638400f894146105835780638da5cb5b146105ac578063a22cb465146105d7578063a8b7591314610600578063ad17a0b31461062b57610203565b8063715018a614610501578063731133e9146105185780637cb8aa4a146105415780637f2b8fa51461056c57610203565b80632912d4181161019b5780634547a5d11161016a5780634547a5d11461040a5780634e1273f4146104335780634f558e79146104705780635c3c8660146104ad5780636b20c454146104d857610203565b80632912d418146103765780632d55de401461039f5780632eb2c2d6146103b65780633b0399ba146103df57610203565b806314637feb116101d757806314637feb146102ea5780631a2ad5cb146103065780631f7fdffa146103225780632886751c1461034b57610203565b8062fdd58e1461020857806301ffc9a7146102455780630e89341c1461028257806311baaaa7146102bf575b600080fd5b34801561021457600080fd5b5061022f600480360381019061022a9190612e16565b6107e1565b60405161023c9190612e65565b60405180910390f35b34801561025157600080fd5b5061026c60048036038101906102679190612ed8565b6108a9565b6040516102799190612f20565b60405180910390f35b34801561028e57600080fd5b506102a960048036038101906102a49190612f3b565b61098b565b6040516102b69190612ff8565b60405180910390f35b3480156102cb57600080fd5b506102d4610a1f565b6040516102e19190612e65565b60405180910390f35b61030460048036038101906102ff9190613050565b610a25565b005b610320600480360381019061031b919061307d565b610ad8565b005b34801561032e57600080fd5b50610349600480360381019061034491906132cd565b610bdf565b005b34801561035757600080fd5b50610360610bf9565b60405161036d9190612e65565b60405180910390f35b34801561038257600080fd5b5061039d60048036038101906103989190613388565b610bff565b005b3480156103ab57600080fd5b506103b4610d95565b005b3480156103c257600080fd5b506103dd60048036038101906103d891906133c8565b610ded565b005b3480156103eb57600080fd5b506103f4610e8e565b60405161040191906134a6565b60405180910390f35b34801561041657600080fd5b50610431600480360381019061042c9190612f3b565b610e94565b005b34801561043f57600080fd5b5061045a60048036038101906104559190613584565b610ea6565b60405161046791906136ba565b60405180910390f35b34801561047c57600080fd5b5061049760048036038101906104929190612f3b565b610fbf565b6040516104a49190612f20565b60405180910390f35b3480156104b957600080fd5b506104c2610fd3565b6040516104cf9190612e65565b60405180910390f35b3480156104e457600080fd5b506104ff60048036038101906104fa91906136dc565b610fd8565b005b34801561050d57600080fd5b50610516611075565b005b34801561052457600080fd5b5061053f600480360381019061053a9190613767565b611089565b005b34801561054d57600080fd5b506105566110a3565b6040516105639190612e65565b60405180910390f35b34801561057857600080fd5b506105816110a9565b005b34801561058f57600080fd5b506105aa60048036038101906105a59190612f3b565b6110c2565b005b3480156105b857600080fd5b506105c1611175565b6040516105ce91906137f9565b60405180910390f35b3480156105e357600080fd5b506105fe60048036038101906105f99190613840565b61119f565b005b34801561060c57600080fd5b506106156111b5565b6040516106229190612e65565b60405180910390f35b34801561063757600080fd5b50610652600480360381019061064d9190612f3b565b6111bb565b005b34801561066057600080fd5b506106696111cd565b005b34801561067757600080fd5b50610692600480360381019061068d9190612f3b565b6112bb565b60405161069f9190612e65565b60405180910390f35b3480156106b457600080fd5b506106bd6112d8565b6040516106ca9190612e65565b60405180910390f35b3480156106df57600080fd5b506106e86112de565b6040516106f591906137f9565b60405180910390f35b34801561070a57600080fd5b5061072560048036038101906107209190613880565b611304565b6040516107329190612f20565b60405180910390f35b34801561074757600080fd5b50610750611398565b60405161075d9190612e65565b60405180910390f35b34801561077257600080fd5b5061078d600480360381019061078891906138c0565b61139e565b005b34801561079b57600080fd5b506107b660048036038101906107b19190613957565b61143f565b005b3480156107c457600080fd5b506107df60048036038101906107da919061307d565b6114c2565b005b60008073ffffffffffffffffffffffffffffffffffffffff168373ffffffffffffffffffffffffffffffffffffffff1603610851576040517f08c379a0000000000000000000000000000000000000000000000000000000008152600401610848906139f6565b60405180910390fd5b60008083815260200190815260200160002060008473ffffffffffffffffffffffffffffffffffffffff1673ffffffffffffffffffffffffffffffffffffffff16815260200190815260200160002054905092915050565b60007fd9b67a26000000000000000000000000000000000000000000000000000000007bffffffffffffffffffffffffffffffffffffffffffffffffffffffff1916827bffffffffffffffffffffffffffffffffffffffffffffffffffffffff1916148061097457507f0e89341c000000000000000000000000000000000000000000000000000000007bffffffffffffffffffffffffffffffffffffffffffffffffffffffff1916827bffffffffffffffffffffffffffffffffffffffffffffffffffffffff1916145b8061098457506109838261155f565b5b9050919050565b60606002805461099a90613a45565b80601f01602080910402602001604051908101604052809291908181526020018280546109c690613a45565b8015610a135780601f106109e857610100808354040283529160200191610a13565b820191906000526020600020905b8154815290600101906020018083116109f657829003601f168201915b50505050509050919050565b60095481565b678ac7230489e80000341015610a70576040517f08c379a0000000000000000000000000000000000000000000000000000000008152600401610a6790613ac2565b60405180910390fd5b6000600b5414610ab5576040517f08c379a0000000000000000000000000000000000000000000000000000000008152600401610aac90613b2e565b60405180910390fd5b34600c6000828254610ac79190613b7d565b9250508190555080600b8190555050565b60055481610ae69190613bb1565b341015610b28576040517f08c379a0000000000000000000000000000000000000000000000000000000008152600401610b1f90613ac2565b60405180910390fd5b610b568383670de0b6b3a764000084610b419190613bb1565b604051806020016040528060008152506115c9565b6000600234610b659190613c22565b90508034610b739190613c53565b600c6000828254610b849190613b7d565b92505081905550610b93611175565b73ffffffffffffffffffffffffffffffffffffffff166108fc829081150290604051600060405180830381858888f19350505050158015610bd8573d6000803e3d6000fd5b5050505050565b610be7611779565b610bf3848484846117f7565b50505050565b60085481565b6006548211610c43576040517f08c379a0000000000000000000000000000000000000000000000000000000008152600401610c3a90613cd3565b60405180910390fd5b600073ffffffffffffffffffffffffffffffffffffffff168173ffffffffffffffffffffffffffffffffffffffff1603610cb2576040517f08c379a0000000000000000000000000000000000000000000000000000000008152600401610ca990613d65565b60405180910390fd5b600954421015610cf7576040517f08c379a0000000000000000000000000000000000000000000000000000000008152600401610cee90613dd1565b60405180910390fd5b600854600954610d079190613b7d565b421115610d49576040517f08c379a0000000000000000000000000000000000000000000000000000000008152600401610d4090613e3d565b60405180910390fd5b8160068190555080600760006101000a81548173ffffffffffffffffffffffffffffffffffffffff021916908373ffffffffffffffffffffffffffffffffffffffff1602179055505050565b610d9d611779565b610da5611a23565b73ffffffffffffffffffffffffffffffffffffffff166108fc479081150290604051600060405180830381858888f19350505050158015610dea573d6000803e3d6000fd5b50565b610df5611a23565b73ffffffffffffffffffffffffffffffffffffffff168573ffffffffffffffffffffffffffffffffffffffff161480610e3b5750610e3a85610e35611a23565b611304565b5b610e7a576040517f08c379a0000000000000000000000000000000000000000000000000000000008152600401610e7190613ecf565b60405180910390fd5b610e878585858585611a2b565b5050505050565b600b5481565b610e9c611779565b8060088190555050565b60608151835114610eec576040517f08c379a0000000000000000000000000000000000000000000000000000000008152600401610ee390613f61565b60405180910390fd5b6000835167ffffffffffffffff811115610f0957610f086130d5565b5b604051908082528060200260200182016040528015610f375781602001602082028036833780820191505090505b50905060005b8451811015610fb457610f84858281518110610f5c57610f5b613f81565b5b6020026020010151858381518110610f7757610f76613f81565b5b60200260200101516107e1565b828281518110610f9757610f96613f81565b5b60200260200101818152505080610fad90613fb0565b9050610f3d565b508091505092915050565b600080610fcb836112bb565b119050919050565b600081565b610fe0611a23565b73ffffffffffffffffffffffffffffffffffffffff168373ffffffffffffffffffffffffffffffffffffffff161480611026575061102583611020611a23565b611304565b5b611065576040517f08c379a000000000000000000000000000000000000000000000000000000000815260040161105c90613ecf565b60405180910390fd5b611070838383611d4c565b505050565b61107d611779565b611087600061201a565b565b611091611779565b61109d848484846115c9565b50505050565b600c5481565b6110b1611779565b426009819055506001600a81905550565b426008546009546110d39190613b7d565b10611113576040517f08c379a000000000000000000000000000000000000000000000000000000000815260040161110a90614044565b60405180910390fd5b600060095403611158576040517f08c379a000000000000000000000000000000000000000000000000000000000815260040161114f906140b0565b60405180910390fd5b611172611163611a23565b82670de0b6b3a76400006120e0565b50565b6000600360009054906101000a900473ffffffffffffffffffffffffffffffffffffffff16905090565b6111b16111aa611a23565b8383612326565b5050565b600a5481565b6111c3611779565b8060058190555050565b6008546009546111dd9190613b7d565b42101561121f576040517f08c379a00000000000000000000000000000000000000000000000000000000081526004016112169061411c565b60405180910390fd5b600760009054906101000a900473ffffffffffffffffffffffffffffffffffffffff1673ffffffffffffffffffffffffffffffffffffffff166108fc600c549081150290604051600060405180830381858888f19350505050158015611289573d6000803e3d6000fd5b506000600c819055506000600b8190555042600981905550600a60008154809291906112b490613fb0565b9190505550565b600060046000838152602001908152602001600020549050919050565b60055481565b600760009054906101000a900473ffffffffffffffffffffffffffffffffffffffff1681565b6000600160008473ffffffffffffffffffffffffffffffffffffffff1673ffffffffffffffffffffffffffffffffffffffff16815260200190815260200160002060008373ffffffffffffffffffffffffffffffffffffffff1673ffffffffffffffffffffffffffffffffffffffff16815260200190815260200160002060009054906101000a900460ff16905092915050565b60065481565b6113a6611a23565b73ffffffffffffffffffffffffffffffffffffffff168573ffffffffffffffffffffffffffffffffffffffff1614806113ec57506113eb856113e6611a23565b611304565b5b61142b576040517f08c379a000000000000000000000000000000000000000000000000000000000815260040161142290613ecf565b60405180910390fd5b6114388585858585612492565b5050505050565b611447611779565b600073ffffffffffffffffffffffffffffffffffffffff168173ffffffffffffffffffffffffffffffffffffffff16036114b6576040517f08c379a00000000000000000000000000000000000000000000000000000000081526004016114ad906141ae565b60405180910390fd5b6114bf8161201a565b50565b6114ca611a23565b73ffffffffffffffffffffffffffffffffffffffff168373ffffffffffffffffffffffffffffffffffffffff161480611510575061150f8361150a611a23565b611304565b5b61154f576040517f08c379a000000000000000000000000000000000000000000000000000000000815260040161154690613ecf565b60405180910390fd5b61155a8383836120e0565b505050565b60007f01ffc9a7000000000000000000000000000000000000000000000000000000007bffffffffffffffffffffffffffffffffffffffffffffffffffffffff1916827bffffffffffffffffffffffffffffffffffffffffffffffffffffffff1916149050919050565b600073ffffffffffffffffffffffffffffffffffffffff168473ffffffffffffffffffffffffffffffffffffffff1603611638576040517f08c379a000000000000000000000000000000000000000000000000000000000815260040161162f90614240565b60405180910390fd5b6000611642611a23565b9050600061164f8561272d565b9050600061165c8561272d565b905061166d836000898585896127a7565b8460008088815260200190815260200160002060008973ffffffffffffffffffffffffffffffffffffffff1673ffffffffffffffffffffffffffffffffffffffff16815260200190815260200160002060008282546116cc9190613b7d565b925050819055508673ffffffffffffffffffffffffffffffffffffffff16600073ffffffffffffffffffffffffffffffffffffffff168473ffffffffffffffffffffffffffffffffffffffff167fc3d58168c5ae7397731d063d5bbf3d657854427343f4c083240f7aacaa2d0f62898960405161174a929190614260565b60405180910390a4611761836000898585896127bd565b611770836000898989896127c5565b50505050505050565b611781611a23565b73ffffffffffffffffffffffffffffffffffffffff1661179f611175565b73ffffffffffffffffffffffffffffffffffffffff16146117f5576040517f08c379a00000000000000000000000000000000000000000000000000000000081526004016117ec906142d5565b60405180910390fd5b565b600073ffffffffffffffffffffffffffffffffffffffff168473ffffffffffffffffffffffffffffffffffffffff1603611866576040517f08c379a000000000000000000000000000000000000000000000000000000000815260040161185d90614240565b60405180910390fd5b81518351146118aa576040517f08c379a00000000000000000000000000000000000000000000000000000000081526004016118a190614367565b60405180910390fd5b60006118b4611a23565b90506118c5816000878787876127a7565b60005b845181101561197e578381815181106118e4576118e3613f81565b5b602002602001015160008087848151811061190257611901613f81565b5b6020026020010151815260200190815260200160002060008873ffffffffffffffffffffffffffffffffffffffff1673ffffffffffffffffffffffffffffffffffffffff16815260200190815260200160002060008282546119649190613b7d565b92505081905550808061197690613fb0565b9150506118c8565b508473ffffffffffffffffffffffffffffffffffffffff16600073ffffffffffffffffffffffffffffffffffffffff168273ffffffffffffffffffffffffffffffffffffffff167f4a39dc06d4c0dbc64b70af90fd698a233a518aa5d07e595d983b8c0526c8f7fb87876040516119f6929190614387565b60405180910390a4611a0d816000878787876127bd565b611a1c8160008787878761299c565b5050505050565b600033905090565b8151835114611a6f576040517f08c379a0000000000000000000000000000000000000000000000000000000008152600401611a6690614367565b60405180910390fd5b600073ffffffffffffffffffffffffffffffffffffffff168473ffffffffffffffffffffffffffffffffffffffff1603611ade576040517f08c379a0000000000000000000000000000000000000000000000000000000008152600401611ad590614430565b60405180910390fd5b6000611ae8611a23565b9050611af88187878787876127a7565b60005b8451811015611ca9576000858281518110611b1957611b18613f81565b5b602002602001015190506000858381518110611b3857611b37613f81565b5b60200260200101519050600080600084815260200190815260200160002060008b73ffffffffffffffffffffffffffffffffffffffff1673ffffffffffffffffffffffffffffffffffffffff16815260200190815260200160002054905081811015611bd9576040517f08c379a0000000000000000000000000000000000000000000000000000000008152600401611bd0906144c2565b60405180910390fd5b81810360008085815260200190815260200160002060008c73ffffffffffffffffffffffffffffffffffffffff1673ffffffffffffffffffffffffffffffffffffffff168152602001908152602001600020819055508160008085815260200190815260200160002060008b73ffffffffffffffffffffffffffffffffffffffff1673ffffffffffffffffffffffffffffffffffffffff1681526020019081526020016000206000828254611c8e9190613b7d565b9250508190555050505080611ca290613fb0565b9050611afb565b508473ffffffffffffffffffffffffffffffffffffffff168673ffffffffffffffffffffffffffffffffffffffff168273ffffffffffffffffffffffffffffffffffffffff167f4a39dc06d4c0dbc64b70af90fd698a233a518aa5d07e595d983b8c0526c8f7fb8787604051611d20929190614387565b60405180910390a4611d368187878787876127bd565b611d4481878787878761299c565b505050505050565b600073ffffffffffffffffffffffffffffffffffffffff168373ffffffffffffffffffffffffffffffffffffffff1603611dbb576040517f08c379a0000000000000000000000000000000000000000000000000000000008152600401611db290614554565b60405180910390fd5b8051825114611dff576040517f08c379a0000000000000000000000000000000000000000000000000000000008152600401611df690614367565b60405180910390fd5b6000611e09611a23565b9050611e29818560008686604051806020016040528060008152506127a7565b60005b8351811015611f76576000848281518110611e4a57611e49613f81565b5b602002602001015190506000848381518110611e6957611e68613f81565b5b60200260200101519050600080600084815260200190815260200160002060008973ffffffffffffffffffffffffffffffffffffffff1673ffffffffffffffffffffffffffffffffffffffff16815260200190815260200160002054905081811015611f0a576040517f08c379a0000000000000000000000000000000000000000000000000000000008152600401611f01906145e6565b60405180910390fd5b81810360008085815260200190815260200160002060008a73ffffffffffffffffffffffffffffffffffffffff1673ffffffffffffffffffffffffffffffffffffffff168152602001908152602001600020819055505050508080611f6e90613fb0565b915050611e2c565b50600073ffffffffffffffffffffffffffffffffffffffff168473ffffffffffffffffffffffffffffffffffffffff168273ffffffffffffffffffffffffffffffffffffffff167f4a39dc06d4c0dbc64b70af90fd698a233a518aa5d07e595d983b8c0526c8f7fb8686604051611fee929190614387565b60405180910390a4612014818560008686604051806020016040528060008152506127bd565b50505050565b6000600360009054906101000a900473ffffffffffffffffffffffffffffffffffffffff16905081600360006101000a81548173ffffffffffffffffffffffffffffffffffffffff021916908373ffffffffffffffffffffffffffffffffffffffff1602179055508173ffffffffffffffffffffffffffffffffffffffff168173ffffffffffffffffffffffffffffffffffffffff167f8be0079c531659141344cd1fd0a4f28419497f9722a3daafe3b4186f6b6457e060405160405180910390a35050565b600073ffffffffffffffffffffffffffffffffffffffff168373ffffffffffffffffffffffffffffffffffffffff160361214f576040517f08c379a000000000000000000000000000000000000000000000000000000000815260040161214690614554565b60405180910390fd5b6000612159611a23565b905060006121668461272d565b905060006121738461272d565b9050612193838760008585604051806020016040528060008152506127a7565b600080600087815260200190815260200160002060008873ffffffffffffffffffffffffffffffffffffffff1673ffffffffffffffffffffffffffffffffffffffff1681526020019081526020016000205490508481101561222a576040517f08c379a0000000000000000000000000000000000000000000000000000000008152600401612221906145e6565b60405180910390fd5b84810360008088815260200190815260200160002060008973ffffffffffffffffffffffffffffffffffffffff1673ffffffffffffffffffffffffffffffffffffffff16815260200190815260200160002081905550600073ffffffffffffffffffffffffffffffffffffffff168773ffffffffffffffffffffffffffffffffffffffff168573ffffffffffffffffffffffffffffffffffffffff167fc3d58168c5ae7397731d063d5bbf3d657854427343f4c083240f7aacaa2d0f6289896040516122f7929190614260565b60405180910390a461231d848860008686604051806020016040528060008152506127bd565b50505050505050565b8173ffffffffffffffffffffffffffffffffffffffff168373ffffffffffffffffffffffffffffffffffffffff1603612394576040517f08c379a000000000000000000000000000000000000000000000000000000000815260040161238b90614678565b60405180910390fd5b80600160008573ffffffffffffffffffffffffffffffffffffffff1673ffffffffffffffffffffffffffffffffffffffff16815260200190815260200160002060008473ffffffffffffffffffffffffffffffffffffffff1673ffffffffffffffffffffffffffffffffffffffff16815260200190815260200160002060006101000a81548160ff0219169083151502179055508173ffffffffffffffffffffffffffffffffffffffff168373ffffffffffffffffffffffffffffffffffffffff167f17307eab39ab6107e8899845ad3d59bd9653f200f220920489ca2b5937696c31836040516124859190612f20565b60405180910390a3505050565b600073ffffffffffffffffffffffffffffffffffffffff168473ffffffffffffffffffffffffffffffffffffffff1603612501576040517f08c379a00000000000000000000000000000000000000000000000000000000081526004016124f890614430565b60405180910390fd5b600061250b611a23565b905060006125188561272d565b905060006125258561272d565b90506125358389898585896127a7565b600080600088815260200190815260200160002060008a73ffffffffffffffffffffffffffffffffffffffff1673ffffffffffffffffffffffffffffffffffffffff168152602001908152602001600020549050858110156125cc576040517f08c379a00000000000000000000000000000000000000000000000000000000081526004016125c3906144c2565b60405180910390fd5b85810360008089815260200190815260200160002060008b73ffffffffffffffffffffffffffffffffffffffff1673ffffffffffffffffffffffffffffffffffffffff168152602001908152602001600020819055508560008089815260200190815260200160002060008a73ffffffffffffffffffffffffffffffffffffffff1673ffffffffffffffffffffffffffffffffffffffff16815260200190815260200160002060008282546126819190613b7d565b925050819055508773ffffffffffffffffffffffffffffffffffffffff168973ffffffffffffffffffffffffffffffffffffffff168573ffffffffffffffffffffffffffffffffffffffff167fc3d58168c5ae7397731d063d5bbf3d657854427343f4c083240f7aacaa2d0f628a8a6040516126fe929190614260565b60405180910390a4612714848a8a86868a6127bd565b612722848a8a8a8a8a6127c5565b505050505050505050565b60606000600167ffffffffffffffff81111561274c5761274b6130d5565b5b60405190808252806020026020018201604052801561277a5781602001602082028036833780820191505090505b509050828160008151811061279257612791613f81565b5b60200260200101818152505080915050919050565b6127b5868686868686612b73565b505050505050565b505050505050565b6127e48473ffffffffffffffffffffffffffffffffffffffff16612d43565b15612994578373ffffffffffffffffffffffffffffffffffffffff1663f23a6e6187878686866040518663ffffffff1660e01b815260040161282a9594939291906146ed565b6020604051808303816000875af192505050801561286657506040513d601f19601f82011682018060405250810190612863919061475c565b60015b61290b57612872614796565b806308c379a0036128ce57506128866147b8565b8061289157506128d0565b806040517f08c379a00000000000000000000000000000000000000000000000000000000081526004016128c59190612ff8565b60405180910390fd5b505b6040517f08c379a0000000000000000000000000000000000000000000000000000000008152600401612902906148ba565b60405180910390fd5b63f23a6e6160e01b7bffffffffffffffffffffffffffffffffffffffffffffffffffffffff1916817bffffffffffffffffffffffffffffffffffffffffffffffffffffffff191614612992576040517f08c379a00000000000000000000000000000000000000000000000000000000081526004016129899061494c565b60405180910390fd5b505b505050505050565b6129bb8473ffffffffffffffffffffffffffffffffffffffff16612d43565b15612b6b578373ffffffffffffffffffffffffffffffffffffffff1663bc197c8187878686866040518663ffffffff1660e01b8152600401612a0195949392919061496c565b6020604051808303816000875af1925050508015612a3d57506040513d601f19601f82011682018060405250810190612a3a919061475c565b60015b612ae257612a49614796565b806308c379a003612aa55750612a5d6147b8565b80612a685750612aa7565b806040517f08c379a0000000000000000000000000000000000000000000000000000000008152600401612a9c9190612ff8565b60405180910390fd5b505b6040517f08c379a0000000000000000000000000000000000000000000000000000000008152600401612ad9906148ba565b60405180910390fd5b63bc197c8160e01b7bffffffffffffffffffffffffffffffffffffffffffffffffffffffff1916817bffffffffffffffffffffffffffffffffffffffffffffffffffffffff191614612b69576040517f08c379a0000000000000000000000000000000000000000000000000000000008152600401612b609061494c565b60405180910390fd5b505b505050505050565b612b81868686868686612d66565b600073ffffffffffffffffffffffffffffffffffffffff168573ffffffffffffffffffffffffffffffffffffffff1603612c325760005b8351811015612c3057828181518110612bd457612bd3613f81565b5b602002602001015160046000868481518110612bf357612bf2613f81565b5b602002602001015181526020019081526020016000206000828254612c189190613b7d565b9250508190555080612c2990613fb0565b9050612bb8565b505b600073ffffffffffffffffffffffffffffffffffffffff168473ffffffffffffffffffffffffffffffffffffffff1603612d3b5760005b8351811015612d39576000848281518110612c8757612c86613f81565b5b602002602001015190506000848381518110612ca657612ca5613f81565b5b6020026020010151905060006004600084815260200190815260200160002054905081811015612d0b576040517f08c379a0000000000000000000000000000000000000000000000000000000008152600401612d0290614a46565b60405180910390fd5b818103600460008581526020019081526020016000208190555050505080612d3290613fb0565b9050612c69565b505b505050505050565b6000808273ffffffffffffffffffffffffffffffffffffffff163b119050919050565b505050505050565b6000604051905090565b600080fd5b600080fd5b600073ffffffffffffffffffffffffffffffffffffffff82169050919050565b6000612dad82612d82565b9050919050565b612dbd81612da2565b8114612dc857600080fd5b50565b600081359050612dda81612db4565b92915050565b6000819050919050565b612df381612de0565b8114612dfe57600080fd5b50565b600081359050612e1081612dea565b92915050565b60008060408385031215612e2d57612e2c612d78565b5b6000612e3b85828601612dcb565b9250506020612e4c85828601612e01565b9150509250929050565b612e5f81612de0565b82525050565b6000602082019050612e7a6000830184612e56565b92915050565b60007fffffffff0000000000000000000000000000000000000000000000000000000082169050919050565b612eb581612e80565b8114612ec057600080fd5b50565b600081359050612ed281612eac565b92915050565b600060208284031215612eee57612eed612d78565b5b6000612efc84828501612ec3565b91505092915050565b60008115159050919050565b612f1a81612f05565b82525050565b6000602082019050612f356000830184612f11565b92915050565b600060208284031215612f5157612f50612d78565b5b6000612f5f84828501612e01565b91505092915050565b600081519050919050565b600082825260208201905092915050565b60005b83811015612fa2578082015181840152602081019050612f87565b60008484015250505050565b6000601f19601f8301169050919050565b6000612fca82612f68565b612fd48185612f73565b9350612fe4818560208601612f84565b612fed81612fae565b840191505092915050565b600060208201905081810360008301526130128184612fbf565b905092915050565b6000819050919050565b61302d8161301a565b811461303857600080fd5b50565b60008135905061304a81613024565b92915050565b60006020828403121561306657613065612d78565b5b60006130748482850161303b565b91505092915050565b60008060006060848603121561309657613095612d78565b5b60006130a486828701612dcb565b93505060206130b586828701612e01565b92505060406130c686828701612e01565b9150509250925092565b600080fd5b7f4e487b7100000000000000000000000000000000000000000000000000000000600052604160045260246000fd5b61310d82612fae565b810181811067ffffffffffffffff8211171561312c5761312b6130d5565b5b80604052505050565b600061313f612d6e565b905061314b8282613104565b919050565b600067ffffffffffffffff82111561316b5761316a6130d5565b5b602082029050602081019050919050565b600080fd5b600061319461318f84613150565b613135565b905080838252602082019050602084028301858111156131b7576131b661317c565b5b835b818110156131e057806131cc8882612e01565b8452602084019350506020810190506131b9565b5050509392505050565b600082601f8301126131ff576131fe6130d0565b5b813561320f848260208601613181565b91505092915050565b600080fd5b600067ffffffffffffffff821115613238576132376130d5565b5b61324182612fae565b9050602081019050919050565b82818337600083830152505050565b600061327061326b8461321d565b613135565b90508281526020810184848401111561328c5761328b613218565b5b61329784828561324e565b509392505050565b600082601f8301126132b4576132b36130d0565b5b81356132c484826020860161325d565b91505092915050565b600080600080608085870312156132e7576132e6612d78565b5b60006132f587828801612dcb565b945050602085013567ffffffffffffffff81111561331657613315612d7d565b5b613322878288016131ea565b935050604085013567ffffffffffffffff81111561334357613342612d7d565b5b61334f878288016131ea565b925050606085013567ffffffffffffffff8111156133705761336f612d7d565b5b61337c8782880161329f565b91505092959194509250565b6000806040838503121561339f5761339e612d78565b5b60006133ad85828601612e01565b92505060206133be85828601612dcb565b9150509250929050565b600080600080600060a086880312156133e4576133e3612d78565b5b60006133f288828901612dcb565b955050602061340388828901612dcb565b945050604086013567ffffffffffffffff81111561342457613423612d7d565b5b613430888289016131ea565b935050606086013567ffffffffffffffff81111561345157613450612d7d565b5b61345d888289016131ea565b925050608086013567ffffffffffffffff81111561347e5761347d612d7d565b5b61348a8882890161329f565b9150509295509295909350565b6134a08161301a565b82525050565b60006020820190506134bb6000830184613497565b92915050565b600067ffffffffffffffff8211156134dc576134db6130d5565b5b602082029050602081019050919050565b60006135006134fb846134c1565b613135565b905080838252602082019050602084028301858111156135235761352261317c565b5b835b8181101561354c57806135388882612dcb565b845260208401935050602081019050613525565b5050509392505050565b600082601f83011261356b5761356a6130d0565b5b813561357b8482602086016134ed565b91505092915050565b6000806040838503121561359b5761359a612d78565b5b600083013567ffffffffffffffff8111156135b9576135b8612d7d565b5b6135c585828601613556565b925050602083013567ffffffffffffffff8111156135e6576135e5612d7d565b5b6135f2858286016131ea565b9150509250929050565b600081519050919050565b600082825260208201905092915050565b6000819050602082019050919050565b61363181612de0565b82525050565b60006136438383613628565b60208301905092915050565b6000602082019050919050565b6000613667826135fc565b6136718185613607565b935061367c83613618565b8060005b838110156136ad5781516136948882613637565b975061369f8361364f565b925050600181019050613680565b5085935050505092915050565b600060208201905081810360008301526136d4818461365c565b905092915050565b6000806000606084860312156136f5576136f4612d78565b5b600061370386828701612dcb565b935050602084013567ffffffffffffffff81111561372457613723612d7d565b5b613730868287016131ea565b925050604084013567ffffffffffffffff81111561375157613750612d7d565b5b61375d868287016131ea565b9150509250925092565b6000806000806080858703121561378157613780612d78565b5b600061378f87828801612dcb565b94505060206137a087828801612e01565b93505060406137b187828801612e01565b925050606085013567ffffffffffffffff8111156137d2576137d1612d7d565b5b6137de8782880161329f565b91505092959194509250565b6137f381612da2565b82525050565b600060208201905061380e60008301846137ea565b92915050565b61381d81612f05565b811461382857600080fd5b50565b60008135905061383a81613814565b92915050565b6000806040838503121561385757613856612d78565b5b600061386585828601612dcb565b92505060206138768582860161382b565b9150509250929050565b6000806040838503121561389757613896612d78565b5b60006138a585828601612dcb565b92505060206138b685828601612dcb565b9150509250929050565b600080600080600060a086880312156138dc576138db612d78565b5b60006138ea88828901612dcb565b95505060206138fb88828901612dcb565b945050604061390c88828901612e01565b935050606061391d88828901612e01565b925050608086013567ffffffffffffffff81111561393e5761393d612d7d565b5b61394a8882890161329f565b9150509295509295909350565b60006020828403121561396d5761396c612d78565b5b600061397b84828501612dcb565b91505092915050565b7f455243313135353a2061646472657373207a65726f206973206e6f742061207660008201527f616c6964206f776e657200000000000000000000000000000000000000000000602082015250565b60006139e0602a83612f73565b91506139eb82613984565b604082019050919050565b60006020820190508181036000830152613a0f816139d3565b9050919050565b7f4e487b7100000000000000000000000000000000000000000000000000000000600052602260045260246000fd5b60006002820490506001821680613a5d57607f821691505b602082108103613a7057613a6f613a16565b5b50919050565b7f496e73756666696369656e742076616c75650000000000000000000000000000600082015250565b6000613aac601283612f73565b9150613ab782613a76565b602082019050919050565b60006020820190508181036000830152613adb81613a9f565b9050919050565b7f4c656167756520616c72656164792073706f6e736f7265640000000000000000600082015250565b6000613b18601883612f73565b9150613b2382613ae2565b602082019050919050565b60006020820190508181036000830152613b4781613b0b565b9050919050565b7f4e487b7100000000000000000000000000000000000000000000000000000000600052601160045260246000fd5b6000613b8882612de0565b9150613b9383612de0565b9250828201905080821115613bab57613baa613b4e565b5b92915050565b6000613bbc82612de0565b9150613bc783612de0565b9250828202613bd581612de0565b91508282048414831517613bec57613beb613b4e565b5b5092915050565b7f4e487b7100000000000000000000000000000000000000000000000000000000600052601260045260246000fd5b6000613c2d82612de0565b9150613c3883612de0565b925082613c4857613c47613bf3565b5b828204905092915050565b6000613c5e82612de0565b9150613c6983612de0565b9250828203905081811115613c8157613c80613b4e565b5b92915050565b7f53636f7265206973206e6f7420686967686572207468616e2063757272656e74600082015250565b6000613cbd602083612f73565b9150613cc882613c87565b602082019050919050565b60006020820190508181036000830152613cec81613cb0565b9050919050565b7f53636f72657220616464726573732063616e6e6f7420626520746865207a657260008201527f6f20616464726573730000000000000000000000000000000000000000000000602082015250565b6000613d4f602983612f73565b9150613d5a82613cf3565b604082019050919050565b60006020820190508181036000830152613d7e81613d42565b9050919050565b7f4c656167756520686173206e6f74207374617274656420796574000000000000600082015250565b6000613dbb601a83612f73565b9150613dc682613d85565b602082019050919050565b60006020820190508181036000830152613dea81613dae565b9050919050565b7f4c65616775652068617320656e64656400000000000000000000000000000000600082015250565b6000613e27601083612f73565b9150613e3282613df1565b602082019050919050565b60006020820190508181036000830152613e5681613e1a565b9050919050565b7f455243313135353a2063616c6c6572206973206e6f7420746f6b656e206f776e60008201527f6572206e6f7220617070726f7665640000000000000000000000000000000000602082015250565b6000613eb9602f83612f73565b9150613ec482613e5d565b604082019050919050565b60006020820190508181036000830152613ee881613eac565b9050919050565b7f455243313135353a206163636f756e747320616e6420696473206c656e67746860008201527f206d69736d617463680000000000000000000000000000000000000000000000602082015250565b6000613f4b602983612f73565b9150613f5682613eef565b604082019050919050565b60006020820190508181036000830152613f7a81613f3e565b9050919050565b7f4e487b7100000000000000000000000000000000000000000000000000000000600052603260045260246000fd5b6000613fbb82612de0565b91507fffffffffffffffffffffffffffffffffffffffffffffffffffffffffffffffff8203613fed57613fec613b4e565b5b600182019050919050565b7f4c6561677565206973206e6f7420616374697665000000000000000000000000600082015250565b600061402e601483612f73565b915061403982613ff8565b602082019050919050565b6000602082019050818103600083015261405d81614021565b9050919050565b7f47616d6520686173206e6f742073746172746564207965740000000000000000600082015250565b600061409a601883612f73565b91506140a582614064565b602082019050919050565b600060208201905081810360008301526140c98161408d565b9050919050565b7f4c6561677565206973206e6f74206f7665722079657400000000000000000000600082015250565b6000614106601683612f73565b9150614111826140d0565b602082019050919050565b60006020820190508181036000830152614135816140f9565b9050919050565b7f4f776e61626c653a206e6577206f776e657220697320746865207a65726f206160008201527f6464726573730000000000000000000000000000000000000000000000000000602082015250565b6000614198602683612f73565b91506141a38261413c565b604082019050919050565b600060208201905081810360008301526141c78161418b565b9050919050565b7f455243313135353a206d696e7420746f20746865207a65726f2061646472657360008201527f7300000000000000000000000000000000000000000000000000000000000000602082015250565b600061422a602183612f73565b9150614235826141ce565b604082019050919050565b600060208201905081810360008301526142598161421d565b9050919050565b60006040820190506142756000830185612e56565b6142826020830184612e56565b9392505050565b7f4f776e61626c653a2063616c6c6572206973206e6f7420746865206f776e6572600082015250565b60006142bf602083612f73565b91506142ca82614289565b602082019050919050565b600060208201905081810360008301526142ee816142b2565b9050919050565b7f455243313135353a2069647320616e6420616d6f756e7473206c656e6774682060008201527f6d69736d61746368000000000000000000000000000000000000000000000000602082015250565b6000614351602883612f73565b915061435c826142f5565b604082019050919050565b6000602082019050818103600083015261438081614344565b9050919050565b600060408201905081810360008301526143a1818561365c565b905081810360208301526143b5818461365c565b90509392505050565b7f455243313135353a207472616e7366657220746f20746865207a65726f20616460008201527f6472657373000000000000000000000000000000000000000000000000000000602082015250565b600061441a602583612f73565b9150614425826143be565b604082019050919050565b600060208201905081810360008301526144498161440d565b9050919050565b7f455243313135353a20696e73756666696369656e742062616c616e636520666f60008201527f72207472616e7366657200000000000000000000000000000000000000000000602082015250565b60006144ac602a83612f73565b91506144b782614450565b604082019050919050565b600060208201905081810360008301526144db8161449f565b9050919050565b7f455243313135353a206275726e2066726f6d20746865207a65726f206164647260008201527f6573730000000000000000000000000000000000000000000000000000000000602082015250565b600061453e602383612f73565b9150614549826144e2565b604082019050919050565b6000602082019050818103600083015261456d81614531565b9050919050565b7f455243313135353a206275726e20616d6f756e7420657863656564732062616c60008201527f616e636500000000000000000000000000000000000000000000000000000000602082015250565b60006145d0602483612f73565b91506145db82614574565b604082019050919050565b600060208201905081810360008301526145ff816145c3565b9050919050565b7f455243313135353a2073657474696e6720617070726f76616c2073746174757360008201527f20666f722073656c660000000000000000000000000000000000000000000000602082015250565b6000614662602983612f73565b915061466d82614606565b604082019050919050565b6000602082019050818103600083015261469181614655565b9050919050565b600081519050919050565b600082825260208201905092915050565b60006146bf82614698565b6146c981856146a3565b93506146d9818560208601612f84565b6146e281612fae565b840191505092915050565b600060a08201905061470260008301886137ea565b61470f60208301876137ea565b61471c6040830186612e56565b6147296060830185612e56565b818103608083015261473b81846146b4565b90509695505050505050565b60008151905061475681612eac565b92915050565b60006020828403121561477257614771612d78565b5b600061478084828501614747565b91505092915050565b60008160e01c9050919050565b600060033d11156147b55760046000803e6147b2600051614789565b90505b90565b600060443d10614845576147ca612d6e565b60043d036004823e80513d602482011167ffffffffffffffff821117156147f2575050614845565b808201805167ffffffffffffffff8111156148105750505050614845565b80602083010160043d03850181111561482d575050505050614845565b61483c82602001850186613104565b82955050505050505b90565b7f455243313135353a207472616e7366657220746f206e6f6e204552433131353560008201527f526563656976657220696d706c656d656e746572000000000000000000000000602082015250565b60006148a4603483612f73565b91506148af82614848565b604082019050919050565b600060208201905081810360008301526148d381614897565b9050919050565b7f455243313135353a204552433131353552656365697665722072656a6563746560008201527f6420746f6b656e73000000000000000000000000000000000000000000000000602082015250565b6000614936602883612f73565b9150614941826148da565b604082019050919050565b6000602082019050818103600083015261496581614929565b9050919050565b600060a08201905061498160008301886137ea565b61498e60208301876137ea565b81810360408301526149a0818661365c565b905081810360608301526149b4818561365c565b905081810360808301526149c881846146b4565b90509695505050505050565b7f455243313135353a206275726e20616d6f756e74206578636565647320746f7460008201527f616c537570706c79000000000000000000000000000000000000000000000000602082015250565b6000614a30602883612f73565b9150614a3b826149d4565b604082019050919050565b60006020820190508181036000830152614a5f81614a23565b905091905056fea264697066735822122072d554ced4c2b7b2b6b6d3b2c6914ed4fc77f9c013644c5b1e64ba1cec22b4f964736f6c6343000811003368747470733a2f2f6170692e63727970746f7370616365696e7661646572732e636f6d2f6170692f746f6b656e2f7b69647d",
  "devdoc": {
    "kind": "dev",
    "methods": {
      "balanceOf(address,uint256)": {
        "details": "See {IERC1155-balanceOf}. Requirements: - `account` cannot be the zero address."
      },
      "balanceOfBatch(address[],uint256[])": {
        "details": "See {IERC1155-balanceOfBatch}. Requirements: - `accounts` and `ids` must have the same length."
      },
      "exists(uint256)": {
        "details": "Indicates whether any token exist with a given id, or not."
      },
      "isApprovedForAll(address,address)": {
        "details": "See {IERC1155-isApprovedForAll}."
      },
      "owner()": {
        "details": "Returns the address of the current owner."
      },
      "renounceOwnership()": {
        "details": "Leaves the contract without owner. It will not be possible to call `onlyOwner` functions anymore. Can only be called by the current owner. NOTE: Renouncing ownership will leave the contract without an owner, thereby removing any functionality that is only available to the owner."
      },
      "safeBatchTransferFrom(address,address,uint256[],uint256[],bytes)": {
        "details": "See {IERC1155-safeBatchTransferFrom}."
      },
      "safeTransferFrom(address,address,uint256,uint256,bytes)": {
        "details": "See {IERC1155-safeTransferFrom}."
      },
      "setApprovalForAll(address,bool)": {
        "details": "See {IERC1155-setApprovalForAll}."
      },
      "supportsInterface(bytes4)": {
        "details": "See {IERC165-supportsInterface}."
      },
      "totalSupply(uint256)": {
        "details": "Total amount of tokens in with a given id."
      },
      "transferOwnership(address)": {
        "details": "Transfers ownership of the contract to a new account (`newOwner`). Can only be called by the current owner."
      },
      "uri(uint256)": {
        "details": "See {IERC1155MetadataURI-uri}. This implementation returns the same URI for *all* token types. It relies on the token type ID substitution mechanism https://eips.ethereum.org/EIPS/eip-1155#metadata[defined in the EIP]. Clients calling this function must replace the `\\{id\\}` substring with the actual token type ID."
      }
    },
    "version": 1
  },
  "userdoc": {
    "kind": "user",
    "methods": {},
    "version": 1
  },
  "storageLayout": {
    "storage": [
      {
        "astId": 138,
        "contract": "contracts/SpaceShooter.sol:CryptoSpaceInvaders",
        "label": "_balances",
        "offset": 0,
        "slot": "0",
        "type": "t_mapping(t_uint256,t_mapping(t_address,t_uint256))"
      },
      {
        "astId": 144,
        "contract": "contracts/SpaceShooter.sol:CryptoSpaceInvaders",
        "label": "_operatorApprovals",
        "offset": 0,
        "slot": "1",
        "type": "t_mapping(t_address,t_mapping(t_address,t_bool))"
      },
      {
        "astId": 146,
        "contract": "contracts/SpaceShooter.sol:CryptoSpaceInvaders",
        "label": "_uri",
        "offset": 0,
        "slot": "2",
        "type": "t_string_storage"
      },
      {
        "astId": 7,
        "contract": "contracts/SpaceShooter.sol:CryptoSpaceInvaders",
        "label": "_owner",
        "offset": 0,
        "slot": "3",
        "type": "t_address"
      },
      {
        "astId": 1577,
        "contract": "contracts/SpaceShooter.sol:CryptoSpaceInvaders",
        "label": "_totalSupply",
        "offset": 0,
        "slot": "4",
        "type": "t_mapping(t_uint256,t_uint256)"
      },
      {
        "astId": 2112,
        "contract": "contracts/SpaceShooter.sol:CryptoSpaceInvaders",
        "label": "creditPrice",
        "offset": 0,
        "slot": "5",
        "type": "t_uint256"
      },
      {
        "astId": 2115,
        "contract": "contracts/SpaceShooter.sol:CryptoSpaceInvaders",
        "label": "highestScore",
        "offset": 0,
        "slot": "6",
        "type": "t_uint256"
      },
      {
        "astId": 2121,
        "contract": "contracts/SpaceShooter.sol:CryptoSpaceInvaders",
        "label": "highestScorer",
        "offset": 0,
        "slot": "7",
        "type": "t_address"
      },
      {
        "astId": 2124,
        "contract": "contracts/SpaceShooter.sol:CryptoSpaceInvaders",
        "label": "leagueDuration",
        "offset": 0,
        "slot": "8",
        "type": "t_uint256"
      },
      {
        "astId": 2127,
        "contract": "contracts/SpaceShooter.sol:CryptoSpaceInvaders",
        "label": "leagueStart",
        "offset": 0,
        "slot": "9",
        "type": "t_uint256"
      },
      {
        "astId": 2130,
        "contract": "contracts/SpaceShooter.sol:CryptoSpaceInvaders",
        "label": "leagueNumber",
        "offset": 0,
        "slot": "10",
        "type": "t_uint256"
      },
      {
        "astId": 2133,
        "contract": "contracts/SpaceShooter.sol:CryptoSpaceInvaders",
        "label": "leagueSponsor",
        "offset": 0,
        "slot": "11",
        "type": "t_bytes32"
      },
      {
        "astId": 2136,
        "contract": "contracts/SpaceShooter.sol:CryptoSpaceInvaders",
        "label": "leagueReward",
        "offset": 0,
        "slot": "12",
        "type": "t_uint256"
      }
    ],
    "types": {
      "t_address": {
        "encoding": "inplace",
        "label": "address",
        "numberOfBytes": "20"
      },
      "t_bool": {
        "encoding": "inplace",
        "label": "bool",
        "numberOfBytes": "1"
      },
      "t_bytes32": {
        "encoding": "inplace",
        "label": "bytes32",
        "numberOfBytes": "32"
      },
      "t_mapping(t_address,t_bool)": {
        "encoding": "mapping",
        "key": "t_address",
        "label": "mapping(address => bool)",
        "numberOfBytes": "32",
        "value": "t_bool"
      },
      "t_mapping(t_address,t_mapping(t_address,t_bool))": {
        "encoding": "mapping",
        "key": "t_address",
        "label": "mapping(address => mapping(address => bool))",
        "numberOfBytes": "32",
        "value": "t_mapping(t_address,t_bool)"
      },
      "t_mapping(t_address,t_uint256)": {
        "encoding": "mapping",
        "key": "t_address",
        "label": "mapping(address => uint256)",
        "numberOfBytes": "32",
        "value": "t_uint256"
      },
      "t_mapping(t_uint256,t_mapping(t_address,t_uint256))": {
        "encoding": "mapping",
        "key": "t_uint256",
        "label": "mapping(uint256 => mapping(address => uint256))",
        "numberOfBytes": "32",
        "value": "t_mapping(t_address,t_uint256)"
      },
      "t_mapping(t_uint256,t_uint256)": {
        "encoding": "mapping",
        "key": "t_uint256",
        "label": "mapping(uint256 => uint256)",
        "numberOfBytes": "32",
        "value": "t_uint256"
      },
      "t_string_storage": {
        "encoding": "bytes",
        "label": "string",
        "numberOfBytes": "32"
      },
      "t_uint256": {
        "encoding": "inplace",
        "label": "uint256",
        "numberOfBytes": "32"
      }
    }
  }
}